:020000000C945E
:100002005B000C9400000C948D010C9400000C9485
:1000120099010C9400000C9400000C9400000C94C4
:1000220000000C9400000C9400000C9400000C944E
:1000320000000C9400000C9400000C9400000C943E
:1000420000000C9400000C9491010C9400000C949C
:1000520000001027E80364000A00010000100001FC
:1000620010000100000000086400253032643A25C7
:100072003032643A2530326420414D0025303264FA
:100082003A253032643A2530326420504D005445CE
:100092004D503A257543004E554D3A25750046554B
:1000A2004C4C000080C006000400660002006001A3
:1000B200A6000000F894EE27ECBBF1E0FBBFEBBF1B
:1000C200E5BF8DE0A2E0BB27ED938A95E9F780E0DA
:1000D20094E0A0E6ED930197E9F7E8EAF0E0859174
:1000E2009591009761F0A591B59105901590BF018A
:1000F200F00105900D920197E1F7FB01F0CFEFE5DA
:10010200EDBFE4E0EEBFC0E6D1E00C9488000BD076
:100112007FD1A82DBB2754D031D0A2D0A4EFB1E01B
:10012200B5D3F6CFFFCFBA988B98C29A939AB89A62
:10013200B99ABB9A8C9ABC9ABD9ABE9ABF9AA0E110
:1001420084D1E5E0E5BDE2B5E860E2BDE9B7E0648F
:10015200E9BF7894EBB7E062EBBFEBB7E068EBBFC7
:10016200E5B7EB7FE5BFE5B7E860E5BFE4B7E0647C
:10017200E4BFE0E2E7B9E3E8E6B90895ECE07E1611
:1001820038F405D3ECE6F0E0FA93EA93E72D0CC0DD
:10019200ECE0E715A0F4E72DEC506E2EF8D2EEE776
:1001A200F0E0FA93EA93E62DFF276627772769D3D3
:1001B200E42DF1D2E52DEFD28CE0A9D22E9608954E
:1001C2001A930A938D010B30E0E01E072CF4C498B9
:1001D200C598C69AC79A32C00B30E0E01E0724F0D9
:1001E2000531E0E01E070CF004C0C498C598C69A19
:1001F20024C00531E0E01E0724F00F31E0E01E07C5
:100202000CF003C0C498C59817C00F31E0E01E0778
:1002120024F00932E0E01E070CF003C0C49AC5982E
:100222000BC00932E0E01E0724F00333E0E01E07B2
:100232000CF004C0C49AC59AC698C798E0E0EA9345
:10024200A1E0D4D0E0E9F0E0FA93EA93F8016F2F4D
:10025200660F660B762F15D384E059D2269659C0C5
:10026200992041F4C098C198C3989AD284E04FD2A1
:10027200269634C0E4E1E915A8F092D284E047D290
:100282002696EAE0E91518F0C09AC19809C0EAE09A
:10029200E91518F4E4E1E91508F403C0C09AC19A1B
:1002A200C3981CC0E4E1E915C8F4C39AE9E19E16BB
:1002B20030F476D284E02BD2269694980FC0E9E1EE
:1002C2009E1660F0EAE0EA93A1E090D0E0EAF0E066
:1002D200FA93EA9380E01BD22296949A08951A9395
:1002E2001A2FE7B1E07EE12BE7B9369A3699FECFB5
:1002F200E5B1F0E0D4C01A930A9300E010E0A0E068
:10030200EEDFA2E3B0E090D2DF01EFEFF0E094D2B3
:100312008F01099119910895EA93EFB7939405C05B
:10032200EA93EFB7992009F09A94EFBFE9911895F3
:100332000A921A92FA926A937A938A939A93AA9356
:10034200BA93EA93FA93EFB7EA93A52DBB27E5E0B8
:10035200F0E085D2309711F4CEDF8E2E5394ECE389
:10036200E51511F455244394ECE3E41511F4442407
:100372007394E991EFBFF991E991B991A99199919A
:10038200899179916991F9901990099018951A9328
:100392001A2F14FF02C0AB9A01C0AB9815FF02C01E
:1003A200AC9A01C0AC9816FF02C0AD9A01C0AD98DC
:1003B20017FF02C0909A01C090988DE08A95F1F7DC
:1003C200AA9A8DE08A95F1F7AA988DE08A95F1F7BD
:1003D20066C0AA93A881DBDFE881E295E883A88161
:1003E200D6DF85E88A95F1F7219608951A930A9344
:1003F2001A2F0A81E12FF0E0E05AFE4FE081E00F70
:10040200AE2FE7DFB02EA12E198108812396089521
:10041200A2E0D0D1ACE0DDDFA1E0CCD1E0E0AE2EB5
:10042200BE2E08951A931A2F1A3011F0BD1438F007
:10043200E0E0EA93A394AA2DD9DF1A3081F1B394B4
:10044200A89AA12FC6DFA8982AC01A931A2FA39A96
:10045200A49AA59A889AA29AA09AA19AAA98A898C8
:10046200A998D12EE12FE058E0936201E12FE054E8
:10047200E0936301A4E1B0E009D2A0D19FD19ED163
:10048200A0E285DF88EC90E00197F1F7A8E2A1DF16
:10049200A4E09FDFA5E89DDFA6E09BDFB9DF19910D
:1004A2000895BA93AA932697ADD110E0AC85BD8585
:1004B200E0E0F0E0ED93FC93EA89FB893196EA8B68
:1004C200FB8B3197E4912E2FE03009F40BC1E12F21
:1004D200E03031F4253211F411E001C076D101C1CE
:1004E200E130A1F4253211F470D1FAC012E040E0FB
:1004F20000E02D3211F401E0F4C02B3211F44BE292
:10050200F0C0203211F440E2ECC002C0E23039F413
:1005120050E013E0203311F40068E3C003C0E3307D
:1005220009F0DFC0203310F02A3308F007C0AAE038
:100532005A9F502DE22FE0535E0FD3C0E22FE336D5
:1005420039F44AD1E889F989A481AA934BD1C8C068
:10055200E33729F441D14CD101D11E2F07C0E03736
:1005620049F43AD145D106D11E2F086002600F77B7
:1005720030E03AC0E43611F0E93611F4046002C00A
:10058200E53731F4E4E5F0E0EE83FF8315E00CC0DB
:10059200E83511F4086003C0E83709F0A1C0EEE5C0
:1005A200F0E0EE83FF8314E002FF15C015D1A889A5
:1005B200B9891496ED91FD91EA87FB87AB85AA2351
:1005C20022F42ED1EA87FB874DE2403011F01F5F03
:1005D20001C00B7F09C000D1A889B9891496ED9199
:1005E200FC911197EA87FB8700FD10C0151770F484
:1005F20007FF08C002FF04C00B7F242F115001C067
:1006020020E301C020E2E1D05150F0CF312F01FFB1
:1006120016C0303099F003FF06C0EE81FF812591AC
:10062200EE83FF8305C0AE81BF812D91AE83BF8370
:10063200CCD0503009F051503150EBCF48C020E3BC
:10064200EE81FF811AD1E887F987EE81FF81329628
:10065200EE83FF83E885F985AA85BB85AE17BF07C0
:1006620050F02F5FA885B985EA85FB85EA1BFB0B55
:10067200EA87FB87EFCF2A3328F003FF02C0295F06
:1006820001C0295D04FD19C0213320F4A885B98574
:10069200119709F409C0531710F000FF01C011C0EF
:1006A20020E207FF0AC020E3006102FF06C00B7FC1
:1006B2004A9398D0503009F0515087D0503009F009
:1006C20051503150A885B985129708F0B8CF00FF74
:1006D20007C0503029F05150E0E2EA9383D0F9CFBD
:1006E20010E0EACEAC85BD85ED91FD9192D0649685
:1006F20008958AD08D013C81A32F94DED801ED911B
:10070200FD913196FE93EE9386D025960895FF9241
:10071200F82E26971A930A93DE0114960024AF0D41
:10072200B01D8D01E0E0EC83ED83EE83EF83DE010B
:1007320018960024AF0DB01DED91FD91FA93EA9346
:100742001A930A93EAE7F3E0FA93EA93DE01189622
:10075200A8DE198108812896FF900895BA93AA937A
:10076200A991B991EE27FF276D91662311F0319679
:10077200FBCF0895BA93AA93AA27BB27E991F991CF
:100782000590002011F01196FBCFFD010895E3E0E2
:10079200EA93A0E02BCEFF276627772772D0089531
:1007A200EAE0EA93A1E022DEE9E9F0E0FA93EA93D3
:1007B200E92DF1CF0EDEA3E0B0E068C0A0E3E7DDF3
:1007C20088EC90E00197F1F708952A93AD85BE85F4
:1007D200EF85F88909950895E889F9893497E88BB6
:1007E200F98B0895AD85BE85EF85F8890995089541
:1007F200A889B9891496ED91FD91EE83FF83AE81AC
:10080200BF8108955A934A933A932A931A930A936B
:1008120008955D814C813B812A8119810881089567
:10082200F195E195F0400895FA9FF02DEB9FF00DC0
:10083200EA9FE02DF10D08950024112490E1AA0F02
:10084200BB1F001C111C0E1A1F0A18F40E0E1F1ECD
:1008520001C0A1609A9599F7FD01D0010895E8942D
:10086200B7FF04C0B195A195B0406894F7FDD8DFF9
:10087200E3DFFD010EF4D4DF08950590F491E02D3D
:1008820008957A936A93FA93EA930895109639F049
:10089200A89580ED97E00197F1F71197C9F70895B0
:00000001FF
